{
  "_format": "hh-sol-artifact-1",
  "contractName": "MemoryGame",
  "sourceName": "contracts/MemoryGame.sol",
  "abi": [
    {
      "inputs": [],
      "stateMutability": "nonpayable",
      "type": "constructor"
    },
    {
      "anonymous": false,
      "inputs": [
        {
          "indexed": true,
          "internalType": "uint256",
          "name": "gameId",
          "type": "uint256"
        },
        {
          "indexed": true,
          "internalType": "address",
          "name": "player",
          "type": "address"
        }
      ],
      "name": "GameAbandoned",
      "type": "event"
    },
    {
      "anonymous": false,
      "inputs": [
        {
          "indexed": true,
          "internalType": "uint256",
          "name": "gameId",
          "type": "uint256"
        },
        {
          "indexed": true,
          "internalType": "address",
          "name": "player",
          "type": "address"
        },
        {
          "indexed": false,
          "internalType": "uint256",
          "name": "duration",
          "type": "uint256"
        },
        {
          "indexed": false,
          "internalType": "uint8",
          "name": "score",
          "type": "uint8"
        }
      ],
      "name": "GameCompleted",
      "type": "event"
    },
    {
      "anonymous": false,
      "inputs": [
        {
          "indexed": true,
          "internalType": "uint256",
          "name": "gameId",
          "type": "uint256"
        },
        {
          "indexed": true,
          "internalType": "address",
          "name": "player",
          "type": "address"
        },
        {
          "indexed": false,
          "internalType": "uint8",
          "name": "difficulty",
          "type": "uint8"
        }
      ],
      "name": "GameStarted",
      "type": "event"
    },
    {
      "anonymous": false,
      "inputs": [
        {
          "indexed": true,
          "internalType": "uint256",
          "name": "gameId",
          "type": "uint256"
        },
        {
          "indexed": false,
          "internalType": "uint8",
          "name": "card1",
          "type": "uint8"
        },
        {
          "indexed": false,
          "internalType": "uint8",
          "name": "card2",
          "type": "uint8"
        },
        {
          "indexed": false,
          "internalType": "bool",
          "name": "isMatch",
          "type": "bool"
        }
      ],
      "name": "MoveValidated",
      "type": "event"
    },
    {
      "inputs": [
        {
          "internalType": "uint256",
          "name": "_gameId",
          "type": "uint256"
        }
      ],
      "name": "abandonGame",
      "outputs": [],
      "stateMutability": "nonpayable",
      "type": "function"
    },
    {
      "inputs": [
        {
          "internalType": "uint256",
          "name": "",
          "type": "uint256"
        },
        {
          "internalType": "uint256",
          "name": "",
          "type": "uint256"
        }
      ],
      "name": "gameMoves",
      "outputs": [
        {
          "internalType": "uint8",
          "name": "cardIndex1",
          "type": "uint8"
        },
        {
          "internalType": "uint8",
          "name": "cardIndex2",
          "type": "uint8"
        },
        {
          "internalType": "bool",
          "name": "isMatch",
          "type": "bool"
        },
        {
          "internalType": "uint256",
          "name": "timestamp",
          "type": "uint256"
        }
      ],
      "stateMutability": "view",
      "type": "function"
    },
    {
      "inputs": [
        {
          "internalType": "uint256",
          "name": "",
          "type": "uint256"
        }
      ],
      "name": "games",
      "outputs": [
        {
          "internalType": "uint256",
          "name": "gameId",
          "type": "uint256"
        },
        {
          "internalType": "address",
          "name": "player",
          "type": "address"
        },
        {
          "internalType": "uint8",
          "name": "difficulty",
          "type": "uint8"
        },
        {
          "internalType": "uint8",
          "name": "gridSize",
          "type": "uint8"
        },
        {
          "internalType": "uint8",
          "name": "totalPairs",
          "type": "uint8"
        },
        {
          "internalType": "uint8",
          "name": "foundPairs",
          "type": "uint8"
        },
        {
          "internalType": "uint8",
          "name": "attempts",
          "type": "uint8"
        },
        {
          "internalType": "uint8",
          "name": "wrongAttempts",
          "type": "uint8"
        },
        {
          "internalType": "uint256",
          "name": "startTime",
          "type": "uint256"
        },
        {
          "internalType": "uint256",
          "name": "endTime",
          "type": "uint256"
        },
        {
          "internalType": "bool",
          "name": "isCompleted",
          "type": "bool"
        },
        {
          "internalType": "bool",
          "name": "isActive",
          "type": "bool"
        }
      ],
      "stateMutability": "view",
      "type": "function"
    },
    {
      "inputs": [
        {
          "internalType": "uint256",
          "name": "_gameId",
          "type": "uint256"
        }
      ],
      "name": "getGame",
      "outputs": [
        {
          "components": [
            {
              "internalType": "uint256",
              "name": "gameId",
              "type": "uint256"
            },
            {
              "internalType": "address",
              "name": "player",
              "type": "address"
            },
            {
              "internalType": "uint8",
              "name": "difficulty",
              "type": "uint8"
            },
            {
              "internalType": "uint8",
              "name": "gridSize",
              "type": "uint8"
            },
            {
              "internalType": "uint8",
              "name": "totalPairs",
              "type": "uint8"
            },
            {
              "internalType": "uint8",
              "name": "foundPairs",
              "type": "uint8"
            },
            {
              "internalType": "uint8",
              "name": "attempts",
              "type": "uint8"
            },
            {
              "internalType": "uint8",
              "name": "wrongAttempts",
              "type": "uint8"
            },
            {
              "internalType": "uint256",
              "name": "startTime",
              "type": "uint256"
            },
            {
              "internalType": "uint256",
              "name": "endTime",
              "type": "uint256"
            },
            {
              "internalType": "bool",
              "name": "isCompleted",
              "type": "bool"
            },
            {
              "internalType": "bool",
              "name": "isActive",
              "type": "bool"
            }
          ],
          "internalType": "struct MemoryGame.Game",
          "name": "",
          "type": "tuple"
        }
      ],
      "stateMutability": "view",
      "type": "function"
    },
    {
      "inputs": [
        {
          "internalType": "uint256",
          "name": "_gameId",
          "type": "uint256"
        }
      ],
      "name": "getGameDuration",
      "outputs": [
        {
          "internalType": "uint256",
          "name": "",
          "type": "uint256"
        }
      ],
      "stateMutability": "view",
      "type": "function"
    },
    {
      "inputs": [
        {
          "internalType": "uint256",
          "name": "_gameId",
          "type": "uint256"
        }
      ],
      "name": "getGameMoves",
      "outputs": [
        {
          "components": [
            {
              "internalType": "uint8",
              "name": "cardIndex1",
              "type": "uint8"
            },
            {
              "internalType": "uint8",
              "name": "cardIndex2",
              "type": "uint8"
            },
            {
              "internalType": "bool",
              "name": "isMatch",
              "type": "bool"
            },
            {
              "internalType": "uint256",
              "name": "timestamp",
              "type": "uint256"
            }
          ],
          "internalType": "struct MemoryGame.Move[]",
          "name": "",
          "type": "tuple[]"
        }
      ],
      "stateMutability": "view",
      "type": "function"
    },
    {
      "inputs": [
        {
          "internalType": "address",
          "name": "_player",
          "type": "address"
        }
      ],
      "name": "getPlayerGames",
      "outputs": [
        {
          "internalType": "uint256[]",
          "name": "",
          "type": "uint256[]"
        }
      ],
      "stateMutability": "view",
      "type": "function"
    },
    {
      "inputs": [],
      "name": "getTotalGames",
      "outputs": [
        {
          "internalType": "uint256",
          "name": "",
          "type": "uint256"
        }
      ],
      "stateMutability": "view",
      "type": "function"
    },
    {
      "inputs": [
        {
          "internalType": "uint256",
          "name": "_gameId",
          "type": "uint256"
        }
      ],
      "name": "isGameActive",
      "outputs": [
        {
          "internalType": "bool",
          "name": "",
          "type": "bool"
        }
      ],
      "stateMutability": "view",
      "type": "function"
    },
    {
      "inputs": [
        {
          "internalType": "address",
          "name": "",
          "type": "address"
        },
        {
          "internalType": "uint256",
          "name": "",
          "type": "uint256"
        }
      ],
      "name": "playerGames",
      "outputs": [
        {
          "internalType": "uint256",
          "name": "",
          "type": "uint256"
        }
      ],
      "stateMutability": "view",
      "type": "function"
    },
    {
      "inputs": [
        {
          "internalType": "uint8",
          "name": "_difficulty",
          "type": "uint8"
        }
      ],
      "name": "startGame",
      "outputs": [
        {
          "internalType": "uint256",
          "name": "",
          "type": "uint256"
        }
      ],
      "stateMutability": "nonpayable",
      "type": "function"
    },
    {
      "inputs": [
        {
          "internalType": "uint256",
          "name": "_gameId",
          "type": "uint256"
        },
        {
          "internalType": "uint8",
          "name": "_card1",
          "type": "uint8"
        },
        {
          "internalType": "uint8",
          "name": "_card2",
          "type": "uint8"
        },
        {
          "internalType": "bool",
          "name": "_isMatch",
          "type": "bool"
        }
      ],
      "name": "validateMove",
      "outputs": [],
      "stateMutability": "nonpayable",
      "type": "function"
    }
  ],
  "bytecode": "0x608060405234801561001057600080fd5b506000805561152d806100246000396000f3fe608060405234801561001057600080fd5b50600436106100b45760003560e01c80635bd4349b116100715780635bd4349b146102795780636b28074714610281578063a2f77bcc146102a1578063bf650b7a146102c1578063c02cb7bc146102d6578063e6ab6079146102e957600080fd5b80630a5694c2146100b95780630f42d191146100df578063117a5b90146100f2578063129daf84146101f85780631a60a4e5146102185780632a02ac631461023b575b600080fd5b6100cc6100c7366004611163565b6102fc565b6040519081526020015b60405180910390f35b6100cc6100ed36600461118d565b61032d565b61018161010036600461118d565b6001602081905260009182526040909120805491810154600282015460038301546004909301546001600160a01b0383169360ff600160a01b8504811694600160a81b8104821694600160b01b8204831694600160b81b8304841694600160c01b8404851694600160c81b909404841693909180821691610100909104168c565b604080519c8d526001600160a01b03909b1660208d015260ff998a169a8c019a909a5296881660608b015294871660808a015292861660a089015290851660c08801529390931660e086015261010085019290925261012084019190915215156101408301521515610160820152610180016100d6565b61020b6102063660046111a6565b610478565b6040516100d691906111c8565b61022b61022636600461118d565b6104e4565b60405190151581526020016100d6565b61024e61024936600461120c565b61051f565b6040805160ff95861681529490931660208501529015159183019190915260608201526080016100d6565b6000546100cc565b61029461028f36600461118d565b610571565b6040516100d6919061122e565b6102b46102af36600461118d565b610638565b6040516100d6919061129a565b6102d46102cf366004611385565b610791565b005b6102d46102e436600461118d565b610b94565b6100cc6102f73660046113d9565b610cd4565b6003602052816000526040600020818154811061031857600080fd5b90600052602060002001600091509150505481565b60008160008111801561034257506000548111155b6103675760405162461bcd60e51b815260040161035e906113f4565b60405180910390fd5b60008381526001602081815260409283902083516101808101855281548152928101546001600160a01b0381169284019290925260ff600160a01b8304811694840194909452600160a81b820484166060840152600160b01b820484166080840152600160b81b8204841660a0840152600160c01b8204841660c0840152600160c81b909104831660e08301526002810154610100808401919091526003820154610120840181905260049092015480851615156101408501520490921615156101608201529015610451578061010001518161012001516104499190611437565b925050610472565b8061016001511561046c576101008101516104499042611437565b60009250505b50919050565b6001600160a01b0381166000908152600360209081526040918290208054835181840281018401909452808452606093928301828280156104d857602002820191906000526020600020905b8154815260200190600101908083116104c4575b50505050509050919050565b60008115806104f4575060005482115b1561050157506000919050565b50600090815260016020526040902060040154610100900460ff1690565b6002602052816000526040600020818154811061053b57600080fd5b60009182526020909120600290910201805460019091015460ff8083169450610100830481169350620100009092049091169084565b60608160008111801561058657506000548111155b6105a25760405162461bcd60e51b815260040161035e906113f4565b600083815260026020908152604080832080548251818502810185019093528083529193909284015b8282101561062c5760008481526020908190206040805160808101825260028602909201805460ff808216855261010082048116858701526201000090910416151591830191909152600190810154606083015290835290920191016105cb565b50505050915050919050565b6040805161018081018252600080825260208201819052918101829052606081018290526080810182905260a0810182905260c0810182905260e08101829052610100810182905261012081018290526101408101829052610160810191909152816000811180156106ac57506000548111155b6106c85760405162461bcd60e51b815260040161035e906113f4565b505060009081526001602081815260409283902083516101808101855281548152928101546001600160a01b0381169284019290925260ff600160a01b8304811694840194909452600160a81b820484166060840152600160b01b820484166080840152600160b81b8204841660a0840152600160c01b8204841660c0840152600160c81b909104831660e08301526002810154610100808401919091526003820154610120840152600490910154808416151561014084015204909116151561016082015290565b836000811180156107a457506000548111155b6107c05760405162461bcd60e51b815260040161035e906113f4565b6000858152600160208190526040909120015485906001600160a01b031633146108225760405162461bcd60e51b81526020600482015260136024820152722737ba103a34329033b0b6b290383630bcb2b960691b604482015260640161035e565b6000868152600160205260409020600401548690610100900460ff1661087f5760405162461bcd60e51b815260206004820152601260248201527147616d65206973206e6f742061637469766560701b604482015260640161035e565b8460ff168660ff16036108de5760405162461bcd60e51b815260206004820152602160248201527f43616e6e6f742073656c656374207468652073616d65206361726420747769636044820152606560f81b606482015260840161035e565b6000878152600160208190526040909120015461090590600160a81b900460ff1680611450565b60ff168660ff16106109595760405162461bcd60e51b815260206004820152601960248201527f436172643120696e646578206f7574206f6620626f756e647300000000000000604482015260640161035e565b6000878152600160208190526040909120015461098090600160a81b900460ff1680611450565b60ff168560ff16106109d45760405162461bcd60e51b815260206004820152601960248201527f436172643220696e646578206f7574206f6620626f756e647300000000000000604482015260640161035e565b60008781526001602081905260409091209081018054600160c01b900460ff16906018610a0083611473565b91906101000a81548160ff021916908360ff160217905550508415610a5957600181018054600160b81b900460ff16906017610a3b83611473565b91906101000a81548160ff021916908360ff16021790555050610a8f565b600181018054600160c81b900460ff16906019610a7583611473565b91906101000a81548160ff021916908360ff160217905550505b6000888152600260208181526040808420815160808101835260ff8d81168083528d82168387018181528e1515858801818152426060808901918252895460018082018c559a8f529d8c902098519d909c029097018054935191511515620100000262ff0000199288166101000261ffff199095169d9097169c909c1792909217919091169390931789559251979093019690965582519182529281019290925281019290925289917fccdb807dc408d542e10a8ed3a90ce82e5e86648d1b0d81a876ac4574f3f6a8c6910160405180910390a2600181015460ff600160b01b82048116600160b81b9092041603610b8a57610b8a88611001565b5050505050505050565b80600081118015610ba757506000548111155b610bc35760405162461bcd60e51b815260040161035e906113f4565b6000828152600160208190526040909120015482906001600160a01b03163314610c255760405162461bcd60e51b81526020600482015260136024820152722737ba103a34329033b0b6b290383630bcb2b960691b604482015260640161035e565b6000838152600160205260409020600401548390610100900460ff16610c825760405162461bcd60e51b815260206004820152601260248201527147616d65206973206e6f742061637469766560701b604482015260640161035e565b60008481526001602052604080822060048101805461ff00191690554260039091015551339186917f0e8902edf249baf64499b39999d979c9889079a4cbb3a6b179287de8cef5bda09190a350505050565b600060018260ff1610158015610cee575060038260ff1611155b610d2f5760405162461bcd60e51b8152602060048201526012602482015271496e76616c696420646966666963756c747960701b604482015260640161035e565b600080549080610d3e83611492565b909155505060008054908060ff8516600103610d605750600490506008610d7f565b8460ff16600203610d775750600690506012610d7f565b506008905060205b604051806101800160405280848152602001336001600160a01b031681526020018660ff1681526020018360ff1681526020018260ff168152602001600060ff168152602001600060ff168152602001600060ff1681526020014281526020016000815260200160001515815260200160011515815250600160008581526020019081526020016000206000820151816000015560208201518160010160006101000a8154816001600160a01b0302191690836001600160a01b0316021790555060408201518160010160146101000a81548160ff021916908360ff16021790555060608201518160010160156101000a81548160ff021916908360ff16021790555060808201518160010160166101000a81548160ff021916908360ff16021790555060a08201518160010160176101000a81548160ff021916908360ff16021790555060c08201518160010160186101000a81548160ff021916908360ff16021790555060e08201518160010160196101000a81548160ff021916908360ff160217905550610100820151816002015561012082015181600301556101408201518160040160006101000a81548160ff0219169083151502179055506101608201518160040160016101000a81548160ff02191690831515021790555090505060036000336001600160a01b03166001600160a01b03168152602001908152602001600020839080600181540180825580915050600190039060005260206000200160009091909190915055336001600160a01b0316837fe2d101f66b6ec6d14c197cf84489e89b515d0e6d4a77a448425f5025a63d183787604051610ff0919060ff91909116815260200190565b60405180910390a350909392505050565b60008181526001602081905260408220426003820181905560048201805461ffff1916909317909255600281015490929161103c9190611437565b60018301549091506000906110659060ff600160b81b8204811691600160c81b900416846110bc565b60018401546040805185815260ff841660208201529293506001600160a01b039091169186917fb951110ee7e3239f9f1bca6413e06ed80f6160d52f80309146c3d151037b2234910160405180910390a350505050565b6000806110cd60ff8616600a6114ab565b905060006110df60ff861660026114ab565b905060008085116110f15760006110fd565b6110fd85610e106114c2565b9050600061110b82856114e4565b9050828111156111265761111f8382611437565b905061112a565b5060005b60ff8111611138578061113b565b60ff5b98975050505050505050565b80356001600160a01b038116811461115e57600080fd5b919050565b6000806040838503121561117657600080fd5b61117f83611147565b946020939093013593505050565b60006020828403121561119f57600080fd5b5035919050565b6000602082840312156111b857600080fd5b6111c182611147565b9392505050565b6020808252825182820181905260009190848201906040850190845b81811015611200578351835292840192918401916001016111e4565b50909695505050505050565b6000806040838503121561121f57600080fd5b50508035926020909101359150565b602080825282518282018190526000919060409081850190868401855b8281101561128d578151805160ff908116865287820151168786015285810151151586860152606090810151908501526080909301929085019060010161124b565b5091979650505050505050565b815181526020808301516101808301916112be908401826001600160a01b03169052565b5060408301516112d3604084018260ff169052565b5060608301516112e8606084018260ff169052565b5060808301516112fd608084018260ff169052565b5060a083015161131260a084018260ff169052565b5060c083015161132760c084018260ff169052565b5060e083015161133c60e084018260ff169052565b506101008381015190830152610120808401519083015261014080840151151590830152610160928301511515929091019190915290565b803560ff8116811461115e57600080fd5b6000806000806080858703121561139b57600080fd5b843593506113ab60208601611374565b92506113b960408601611374565b9150606085013580151581146113ce57600080fd5b939692955090935050565b6000602082840312156113eb57600080fd5b6111c182611374565b60208082526013908201527211d85b5948191bd95cc81b9bdd08195e1a5cdd606a1b604082015260600190565b634e487b7160e01b600052601160045260246000fd5b8181038181111561144a5761144a611421565b92915050565b60ff818116838216029081169081811461146c5761146c611421565b5092915050565b600060ff821660ff810361148957611489611421565b60010192915050565b6000600182016114a4576114a4611421565b5060010190565b808202811582820484141761144a5761144a611421565b6000826114df57634e487b7160e01b600052601260045260246000fd5b500490565b8082018082111561144a5761144a61142156fea26469706673582212206971bf346e4969c6459539dfbac74aba0709548d2ee93d184755baba1846d09364736f6c63430008130033",
  "linkReferences": {},
  "deployedLinkReferences": {}
}